S00C00004D4F434B2E73726563EE
S113000018FEFF1F81130000B9010000BF010000AA
S113001000000000000000000000000000000000DC
S1130020000000000000000000000000D5010000F6
S11300300000000000000000DF1000009B12000020
S1130040C9140000C9140000C9140000C914000038
S1130050C9140000C9140000C9140000C914000028
S113006099140000C9140000A1140000C914000070
S11300704D0B0000A9140000B1140000C9140000C5
S1130080C9140000C9140000C9140000C9140000F8
S1130090C9140000C9140000C9140000C9140000E8
S11300A0C9140000C9140000C9140000C9140000D8
S11300B0C9140000C9140000B9140000C1140000E0
S11300C030B503000020364CA3420BD0354CA3427C
S11300D008D0354CA34205D0344CA34202D0344C52
S11300E0A34210D18C001C59324D25408C001D5167
S11300F08C001C59D2B21202E025ED0015402543B4
S113010089005D5000E00120C0B230BD30B503006D
S11301100020234CA3420BD0224CA34208D0224CF3
S1130120A34205D0214CA34202D0214CA3420FD1BB
S11301308C001C590225AC438D005C518C001C5969
S1130140D2B2520002252A40224389005A5000E0CC
S11301500120C0B230BD30B503000020104CA342D2
S11301600BD0104CA34208D00F4CA34205D00F4C27
S1130170A34202D00E4CA3420FD18C001C5901257E
S1130180AC438D005C518C001C59D2B21500ED07B4
S1130190ED0F254389005D5000E00120C0B230BD61
S11301A00090044000A0044000B0044000C004409B
S11301B000D00440FFF8FFFFFEE700007047FEE7B1
S11301C010B50400080011000200200000F060FFD8
S10F01D0200010BDFEE700000400000049
S1130400FFFFFFFFFFFFFFFFFFFFFFFFFEFFFFFFF9
S113041010B50200D34B0020D2B2202A3ED0242AA9
S113042047D02C2A50D0322A59D0362A62D0372AC3
S11304306BD0382A74D0392A7DD03B2A00D185E08C
S11304403D2A00D18DE0402A00D195E0452A00D113
S1130450A1E0492A00D1ADE04A2A00D1B9E04B2AF3
S113046000D1C5E04C2A00D1D1E04D2A00D1DDE015
S1130470562A00D1E9E0612A00D1F5E0662A00D1CC
S113048001E16A2A00D10DE16B2A00D119E16C2A3D
S113049000D125E1732A00D131E13EE180229A584E
S11304A08A4380241A5180229A58114380229950F9
S11304B033E190229A588A4390241A5190229A58F0
S11304C011439022995028E1B0229A588A43B024CB
S11304D01A51B0229A581143B02299501DE1C822F2
S11304E09A588A43C8241A51C8229A581143C822D8
S11304F0995012E1D8229A588A43D8241A51D82202
S11305009A581143D822995007E1DC229A588A4319
S1130510DC241A51DC229A581143DC229950FCE065
S1130520E0229A588A43E0241A51E0229A5811434F
S1130530E0229950F1E0E4229A588A43E4241A51C3
S1130540E4229A581143E4229950E6E0EC229A58A6
S11305508A43EC241A51EC229A581143EC22995004
S1130560DBE0F4229A588A43F4241A51F4229A586C
S11305701143F4229950D0E0802252009A588A43C1
S1130580802464001A51802252009A581143802218
S113059052009950C1E08A2252009A588A438A2410
S11305A064001A518A2252009A5811438A22520036
S11305B09950B2E0922252009A588A4392246400DD
S11305C01A51922252009A58114392225200995081
S11305D0A3E0942252009A588A43942464001A5146
S11305E0942252009A58114394225200995094E054
S11305F0962252009A588A43962464001A519622ED
S113060052009A58114396225200995085E098223C
S113061052009A588A43982464001A51982252002E
S11306209A58114398225200995076E09A22520027
S11306309A588A439A2464001A519A2252009A586A
S113064011439A225200995067E0AC2252009A5802
S11306508A43AC2464001A51AC2252009A581143C4
S1130660AC225200995058E0C22252009A588A4350
S1130670C22464001A51C22252009A581143C22261
S11306805200995049E0CC2252009A588A43CC2413
S113069064001A51CC2252009A581143CC225200C1
S11306A099503AE0D42252009A588A43D4246400E0
S11306B01A51D42252009A581143D422520099500C
S11306C02BE0D62252009A588A43D62464001A5149
S11306D0D62252009A581143D622520099501CE057
S11306E0D82252009A588A43D82464001A51D82236
S11306F052009A581143D822520099500DE0E62234
S113070052009A588A43E62464001A51E6225200A1
S11307109A581143E62252009950C0B210BDC1222A
S11307209200825880239B001343C122920083507D
S1130730D420400008580C4A0240D42040000A50FB
S1130740D42040000858094A0240D42040000A50EE
S1130750D420400008588622D2050243D420400009
S11307600A50704700500640FFFFFFF8FFFFFFBF2D
S113077000B50100FF200A00D2B2303A0A2A02D2A0
S1130780D03108000BE00A00D2B2413A062A02D264
S1130790C931080003E087490A68521C0A60C0B2E4
S11307A000BDF8B50400FF2000252A002278532A52
S11307B030D10E006078FFF7DBFF3070A078FFF7D0
S11307C0D7FF0701E078FFF7D3FF384370707078E4
S11307D08621490070543078002809D0401E022830
S11307E00AD9C01E02280CD9C01E02280BD910E059
S11307F02800022131720DE001203178491C317248
S113080008E0032006E002200B213278891A3172B5
S113081000E00320C0B2F2BDF1B582B00F00FF20AA
S1130820694608710025280028002C001FE0624E4C
S113083002983188405CFFF79BFF0001009002980A
S1130840318840184078FFF793FF01000098014376
S113085020020C00E4B2044386204000385C4018B7
S11308608621490078543088801C30806D1C280013
S1130870397AC0B28842DAD37C6068460079FEBD1A
S113088010B502000023FF2000E05B1C1C00E4B252
S1130890145D0D2CF9D1FC3349784900DBB299423F
S11308A000D00320C0B210BDFEB507000C00FF202D
S11308B0694608710025280028006078401E217AC6
S11308C0401A8421490060501DE03B4E3088385C5A
S11308D0FFF74EFF00010090308838184078FFF78A
S11308E047FF0100009801432800C0B2201841725C
S11308F086204000205C40188621490060543088DE
S1130900801C30806D1C2800C0B2842149006158CD
S11309108842DAD368460079FEBDF8B504000F00BA
S1130920FF2069460870244D2888205CFFF720FFCB
S11309300600288820184078FFF71AFF862149000E
S1130940795C3201104308188621490078546846BE
S11309500078F2BD70B506000C00FF2021003000C5
S1130960FFF71FFF05002800C0B203281DD0210097
S11309703000FFF751FF21003000FFF781FF210015
S11309803000FFF791FF21003000FFF7C6FF04207D
S11309900949088086204000205CFF2803D10548CF
S11309A00068002802D0032500E003252800C0B217
S11309B070BD000010FCFF1F00F8FF1F00B5010010
S11309C0012000E0401C020092B28A5C0D2AF9D199
S11309D080B200BD00B5010049B2002905D401214F
S11309E0C006C00E81407148016000BD00B5010021
S11309F049B2002905D40121C006C00E81406C48CB
S1130A00016000BD00B5C9B2002902D0012909D096
S1130A1012E08169674A0A4082618169664A0A4034
S1130A20826109E08169802212030A43826181693B
S1130A308022D2020A43826100BD00B50978491EB2
S1130A40062906D9C91F0CD0491E17D0491E22D029
S1130A502AE0816910220A4382610169574A0A40E7
S1130A60026181691022914381618169544A0A407B
S1130A7082610169514A0A40026115E081691022CC
S1130A800A43826181694E4A0A40826101694B4A84
S1130A900A40026108E08169494A0A4082610169A9
S1130AA0802292050A43026100BD00B54A78002AFB
S1130AB001D0022200E0002283691A43826189780E
S1130AC0002901D0012100E00021826911438161E4
S1130AD000BD00B5097D002902D08021890100E014
S1130AE0002102691143016100BD80B58169802242
S1130AF092030A4382610C20FFF778FF0C20FFF772
S1130B0069FF01BD00B5C978002902D0802189059B
S1130B1000E0002142691143416100BD00B5C9B242
S1130B20002902D0012908D00FE0264942690A4071
S1130B30426182691140816107E08021490542696F
S1130B400A43426182691143816100BD80B500207E
S1130B501D480068800208D51C4800681C490A68C2
S1130B60002A02D0C0B20968884701BD184908604C
S1130B70704718490A68520B52030369DB04DB0C03
S1130B8013430B600A68144B1340C0680006F82234
S1130B90520502401A430A60704700B50A490968C1
S1130BA00902FBD5C0B20949086000BD00E100E0BC
S1130BB080E200E0FFFFF7FFFFFFFBFFFFFFFFDF27
S1130BC0FFF7FFFFFFFFFFEF14A006401CA0064045
S1130BD00CFCFF1F10A00640FFFFFFE038B5040027
S1130BE000F03DF8524D00212800FFF70BFF2100D3
S1130BF02800FFF722FF21002800FFF756FF2100FD
S1130C002800FFF77FFF00212800FFF787FF21005E
S1130C102800FFF75EFF200000F037F801212800CC
S1130C20FFF7F0FE2800FFF760FF31BD80B54148B3
S1130C300068FFF79BFF01BD70B505000C0000269E
S1130C40300005E03000C0B2285CFFF7A6FF761C38
S1130C5030002100C0B2C9B28842F3D370BD10B5D0
S1130C608021C9054A20FFF7D3FB334C022201211E
S1130C702000FFF725FA022200212000FFF720FAC6
S1130C802E492F48FFF74BFD10BDF8B50700002192
S1130C900800080008000020C043009004241BE062
S1130CA0284E2200D2B27968300000F02BF80500FB
S1130CB02200D2B2290089B2300000F018F8796815
S1130CC000F029F80099884205D200902000C0B2B3
S1130CD0F860ADB23D61641C2000C0B22128DFDBA6
S1130CE0387BC0B2F8603800FFF743FFF1BD00B5B0
S1130CF00B00110000229BB2C9B2491C594300F0F9
S1130D0023F800BD00B50023D2B2521C514300F0B9
S1130D101BF880B200BD00B500231A00081A002891
S1130D2001D50100484200BD024908607047000037
S1130D3000A0064008FCFF1F00A00440005006402D
S1130D400040064000366E010022030A8B420BD29B
S1130D5003098B4219D243088B422ED2411A00D286
S1130D600146524110467047FF2209023FD0120645
S1130D708B4205D3121209028B4201D312120902CB
S1130D8003098B4219D300E0090AC3098B4201D33A
S1130D90CB01C01A524183098B4201D38B01C01A83
S1130DA0524143098B4201D34B01C01A52410309FA
S1130DB08B4201D30B01C01A5241C3088B4201D3A9
S1130DC0CB00C01A524183088B4201D38B00C01A56
S1130DD0524143088B4201D34B00C01A524188420E
S1130DE000D3401A5241CFD201461046704708B58D
S1130DF0FFF7E4F908BD0000F8B5C4B000273800D7
S1130E0041A638008822520000216846FFF7D8F92D
S1130E10FF2000F097F83D48FFF786FFFFF706FF35
S1130E202021A020000200F025F90CE0384C20001D
S1130E30FFF7C4FD0100C9B22000FFF7FDFE012148
S1130E403000FFF7F9FE00F087F80028FBD100F02E
S1130E50D6F86946FFF77EFD040000F0D8F8E4B246
S1130E60002CE3D0022C1ED002D3032C29D0EAE7B5
S1130E703C0014E00198001969460919093100F091
S1130E8000F9244D2800FFF799FD0100C9B228009C
S1130E90FFF7D2FE01213000FFF7CEFE241D429859
S1130EA08442E7D3CFE71C4C2000FFF787FD010005
S1130EB0C9B22000FFF7C0FE01213000FFF7BCFEDD
S1130EC0C1E7164C2000FFF779FD0100C9B22000EC
S1130ED0FFF7B2FE01213000FFF7AEFEB3E710B515
S1130EE072B6A0242402200000F0AEF880F3088833
S1130EF00B48046062B60B4C0B4800F0A5F8206068
S1130F002068804710BD00000A0000002D0F00007B
S1130F108014000088140000741400009014000071
S1130F2008ED00E004FCFF1F04A0000010B504005D
S1130F302000C0B200F03EF8E4B20A2C01D100F067
S1130F4048F810BD3C480021FF22920081543B4ADE
S1130F5081543B4A8154704710B500200100364A41
S1130F60FF239B00D35C354C145DA34204D1344B66
S1130F70D25C002A00D10121C9B2002901D001208C
S1130F80FFE7C0B210BD10B5002001002A4AFF23BC
S1130F909B00D35C294C145DA34204D1284BD25C42
S1130FA0042A00D10121C9B2002901D00120FFE7A0
S1130FB0C0B210BD10B423491F4A204BD35CFF2498
S1130FC06343D2180B78D0540878401C087010BCC6
S1130FD0704780B5FFF7D7FF00280FD1164817498F
S1130FE041180A78521C9207920F0A70144940184B
S1130FF00178491C017000201249087001BD0E4897
S1131000FF218900415CFF2251434018704780B59D
S1131010FFF7A2FF00280DD10748FF2189004118DE
S11310200A78521C9207920F0A70054940180178F9
S1131030491E017001BD000004F8FF1FFD030000FC
S1131040FE03000014FCFF1F0068704770B5050024
S11310500C00002606E03000C0B28002281800F020
S113106068F8761C30002100C0B2C9B28842F2D3BD
S1131070012070BD80B572B6C9B2FFF7E7FF62B652
S113108001BD80B572B600F02BF862B601BD000058
S11310901206130A1A43130C1A4300BF094205D05F
S11310A0830705D00270401C491EF9D17047000027
S11310B01300103906D330B41400150010393CC0A5
S11310C0FCD230BC490700D30CC000D504C0890051
S11310D002D30280801C002900D502707047FEE70D
S11310E010B5224A1378002BFBD01378802B01D043
S11310F03023137006231E4C237003001B0C1D4C5D
S11311002370030A1C4C23701C4B1870C8781C4BAA
S1131110187088781B4B187048781B4B1870087827
S11311201A4908708020107010780028FCD0012023
S113113010BD00B50D490A78002AFBD00A78802A30
S113114001D030220A700922094B1A700200120CD5
S1131150084B1A70020A084B1A70084A1070802053
S1131160087008780028FCD0012000BD000002406F
S1131170070002400600024005000240040002404D
S11311800B0002400A00024009000240080002402D
S113119038B5050000248021C9054C20FFF738F933
S11311A0002800D00124012202212800FEF788FF34
S11311B0002800D00124012202212800FEF7A6FF06
S11311C0002800D00124012202212800FEF7C3FFD9
S11311D0002800D0012400220421044800F008F86B
S11311E0002800D001242000C0B232BDC00000F8A5
S11311F010B503000020F8242406A3420BD00E4CA3
S1131200A34208D00D4CA34205D00D4CA34202D0FA
S11312100C4CA3420DD1D2B2002A02D0012A04D030
S113122008E05A698A435A6104E05A6911435961D2
S113123000E00120C0B210BD400000F8800000F8BA
S1131240C00000F8000100F880B50C48016889046A
S113125003D50B490B4A116004E00A490A4A0A60A3
S11312600A4A0A600A490B4A1160016880229143C4
S113127020220A43026000F00FF801BD002005405F
S113128020C528D90420054020C5000028D9000025
S1131290FFFF0000082005407047FEE780B586B0D8
S11312A068460C49182200F01BF86846FFF796FCC4
S11312B007B000BD80B50848FFF76AFFFFF7EEFFEF
S11312C006480068400701D4FFF796FDFFF707FEC4
S11312D0FEE700005C14000000C00440D00000F8E9
S11312E070B4103A03D378C9103A78C0FBD25307CC
S11312F001D318C918C001D508C908C0D20704D33E
S11313000B880380891C801C002A01D50B7803708C
S113131070BC704770B40123002413E00168001D01
S1131320194202D04D466918491E0C60091D121F4E
S1131330042AFAD20D00960701D50C80AD1C1A4080
S113134000D02C700268001D002AE7D170BC7047E1
S113135030B401220EE00368C31844680830144214
S113136002D04D462C19641E1D6825601B1D241DCA
S1131370091FF9D10168001D0029ECD130BC704768
S113138072B60548054901600A6882F30888044872
S1131390804762B60348004708ED00E00000000003
S11313A0491200004114000010B50749794418316E
S11313B0064C7C44163404E0081D0A6889188847E2
S11313C00100A142F8D110BD08000000280000006F
S11313D045FFFFFF1404000004F8FF1F0000000095
S11313E071FFFFFF04000000F0EDFFFF00F8FF1F96
S11313F00000000000F00DF8002801D0FFF7D4FF32
S113140000BF00BF002000BF00BFFFF753FF00F084
S113141002F80120704780B500F002F801BD000019
S11314200746384600F002F8FBE7000080B500BF2D
S113143000BF024A11001820ABBEFBE726000200E1
S11314400548014603B4684680F3098800BF00BF1D
S113145000BF00BFFFF7CEFFA5EDF5FE08000000BA
S113146000C20100000000000000000000000000B5
S113147000000000537563636573730D0A00000078
S113148053746172740D0A003E3E0D0A00000000A0
S11314904572726F720D0A0000480047C9140000BB
S11314A000480047C914000000480047C914000060
S11314B000480047C914000000480047C914000050
S11314C000480047C914000000480047C914000040
S9031441A7
